:040000000C94340028
:040020000C94F80044
:1300540000000000C0F9A4B0999282F880900000000000D7
:14006800CFE5D4E0CDBFDEBFCE51D0400AEA08830024E3E757
:14007C00F0E010E0E337F10711F00192FBCF0083E4E5F0E024
:14009000A0E6B0E010E000E00BBFE736F10721F0C895319662
:1400A4000D92F9CF0E94EC00FFCF002701C003950F3FE8F3DC
:1400B800089522242EBC87EC8DBD80EC8CBD2FBC84E08EBD5B
:1400CC0025BE2BBE89BF08954A935A9384E690E0E0916000FA
:1400E000FF27E80FF91F208028BA87EF8BBBDFDF8FEF8BBB17
:1400F40084E690E0E0916100FF27E80FF91F208028BA8BEF1B
:140108008BBBD1DF8FEF8BBB40916F0055274030450749F078
:14011C004030E0E05E07CCF04F3FE0E05E0761F014C084E63C
:1401300090E0E0916200FF27E80FF91F80818F7788BB09C030
:1401440084E690E0E0916200FF27E80FF91F208028BA8DEFC7
:140158008BBBA9DF8FEF8BBB84E690E0E0916300FF27E80F36
:14016C00F91F208028BA8EEF8BBB9BDF8FEF8BBB5991499120
:1401800008950E943E014A935A93A9011AE0009171000E94DB
:140194004501FA0103831AE0009171000E944301FA0102832E
:1401A8001AE0009170000E944501FA0101831AE000917000E6
:1401BC000E944301FA01008359914991249608958FEF8ABBED
:1401D00087BB8BBB88BB0895F9DF6FDF789406C020E630E0A5
:1401E40000E710E0CCDF74DFF9CF08952A920A931A938A93AA
:1401F8009A93AA93EA932FB62A9287EC8DBD80EC8CBD209049
:14020C006F00209420926F00022D11270030010749F0003092
:14022000E0E01E070CF10F3FE0E01E07E9F01CC0809170007F
:140234008F5F809370008C33A9F422242092700080917100FF
:140248008F5F809371008C3359F420927100809172008F5F90
:14025C0080937200883111F42092720029902FBEE991A991CD
:140270009991899119910991299018953A932A931A930A93B8
:140284000895689401C0E8942A93FA92EA92FF24EE2420E195
:14029800000FFF1CEE1CE11610F0E11A03952A95B9F70EF423
:0A02AC000E2DE990F99029910895B4
:00000001FF
