:040000000C94550205
:040038000C94C80359
:14005400000000000000000000000000000000000000000098
:14006800000000000000000000000000000000000000000084
:14007C00000000000000000000000000000000000000000070
:1400900000000000000000000000000000000000000000005C
:1400A400000000000000000000000000000000000000000048
:1400B800000000000000000000000000000000000000000034
:1400CC00000000000000000000000000000000000000000020
:1400E00000000000000000000000000000000000000000000C
:1400F4000003F3E00F8FFC0000000000000000000003F3F0A2
:140108000F8FFE0000000000000000000007F9F00F9FFF00AA
:14011C0000000000000000000007F9F81F9FFF00000000001A
:14013000000000000007F9F81F1FFF80000000000000000006
:14014400000FFCF81F3F1F8000000003FFFFFC00000FFCFCA3
:140158003F3F1F8000000007FFFFFC00000FFC7C3E3E1F80D3
:14016C0000000007FFFFFC00001FFE7C7E7E3F002000000189
:14018000C0000000001FBE7E7E7EFF007000000DBFDFB0008A
:14019400001F3E3E7C7FFF007000001DFFDFB000003F3F3EEB
:1401A8007CFFFE007000001DFFD83000003F1F3FFCFFFC00A2
:1401BC006000003DF6D83000003F1F9FF8FFF000E000003D93
:1401D000F6DFB000003FFF9FF9FFE000C000007DF6DFB0001F
:1401E400007FFF9FF9FBE000400000EDF6D83000007FFFCF9E
:1401F800F1F3F000400000EDF6D83000007FFFCFF3F3F000D1
:14020C00400000EDF6DFB00000FFFFCFF3F1F000600001FF2B
:14022000FFFFFE0000F807E7E3E1F008201E01FFFFFFFE00F2
:1402340000F803E7E7E1F8FF3C3F00000000000001F803E3BB
:14024800E7E1F9FFFFF780000000000000F001E3C7C0F9E038
:14025C00FFFFC0000000000000000003C00000807CFCC00055
:140270000000000000000001C00000007FFCF000000000004E
:1402840000000001800000007FFFF000000000000000000176
:140298008000000027FFB0000000000000000000800000007C
:1402AC0037FF10000000000000000000000000003FFF1C009E
:1402C0000000000000000000000000003FFF0C0000000000E0
:1402D4000000000000000000FFFF0000000000000000000018
:1402E80000000001FFFF000000000000000000000000000102
:1402FC00DFFF00000000000000000000000000011FFF0000F1
:14031000000000000000000000000001BFFF0000000000001A
:140324000001F83C00CC0000FFFE000000000000001F6C3705
:14033800F18C0000E7FE0000000000000003606F37FF8000C7
:14034C00CFFC000000000000001FFE6C36798000EEF000003C
:1403600000000000000360EC3671800078000000000000009B
:140374000003EC6C367980003C000000000000000007F86C44
:1403880037ED80003E00000000000000001F306C366D8000A1
:14039C0076000000000000000003766C3661800006000000D5
:1403B000000000000003DE6C37E1800006000000000000004E
:1403C400000F0E6CF66F000006000000000000000000000031
:1403D800000000000000000000000000000000000000000011
:1403EC000000000000000000000000000000000000000000FD
:140400000000000000000000000000000000000000000000E8
:140414000000000000000000000000000000000000000000D4
:140428000000000000000000000000000000000000000000C0
:14043C000000000000000000000000000000000000000000AC
:14045000000000000000000000000000000000000000000098
:14046400000000000000000000000000000000000000000084
:14047800000000000000000000000000000000000000000070
:14048C00303132333435363738395F3A2E5600CDA8B5C03216
:0904A0003A00CDA8B5C0313A00C4
:1404AA00CFE5D4E0CDBFDEBFCE51D0400AEA08830024ECE906
:1404BE00F0E010E0EE39F10711F00192FBCF0083EDE6F4E0C3
:1404D200A0E6B0E014E000E00BBFE93AF10721F0C895319612
:1404E6000D92F9CF0E949403FFCF04E110E049D0D89A20E331
:1404FA0000270FD004E110E042D02CE0002709D004E110E020
:14050E003CD021E0002703D004E110E036C00E94C505422F2A
:14052200A02EAA2019F488EFA82E02C08AEFA82E642F607F50
:14053600842F8F708295807F482F0A2D0FD004E110E01FD098
:14054A00062F0AD004E110E01AD0042F05D004E110E015D00D
:14055E000C94CC054A936A9344270AC0602F607811F0D99A2E
:1405720001C0D998DA9ADA98000F43954830A0F36991499197
:1405860008950E94BB05442755270BC06627772702C06F5FF5
:14059A007F4F6A30E0E07E07D0F34F5F5F4F4017510790F34F
:1405AE000C94C0050E94E10558016627772704E610E0E3DF2C
:1405C20026E30027AADF04E610E0DDDF442717C0242F2058C9
:1405D6000027A1DF20E800279EDFCC240AC01B016F5F7F4F4C
:1405EA00F101EA0DFB1D249101E093DFC3948C2D803198F3A8
:1405FE004395403238F3442717C0242F2058002786DF28E8CB
:14061200002783DFCC240AC01B016F5F7F4FF101EA0DFB1DD8
:14062600249101E078DFC3948C2D803198F34395403238F312
:14063A000C94EA0521E000276CCF0E94C505622FA02E4A2D78
:14064E0055274030450789F04130E0E05E0781F04230E0E0AE
:140662005E0779F04330E0E05E0771F04430E0E05E0769F0CB
:140676000FC0462F40580EC0462F40580BC0462F405708C01A
:14068A00462F485705C0462F485602C0462F4058242F002727
:14069E003EDF0C94CC050E94D305C22EA02E4E815F812C2D7A
:1406B2000A2DC7DF09C0FA01208101E02EDF4F5F5F4F04E6BE
:1406C60010E05FDFFA012080222099F70C94DA05AA92A02EFC
:1406DA008FE790E0EA2DFF27E80FF91F208101E018DFA99028
:1406EE0008952297A5DF04E110E047DF8EE890E09983888316
:14070200222701E0CEDF85E990E099838883222702E0C7DF36
:1407160085E990E099838883222702E0C0DF229608952497F0
:14072A0084E694E0FE0104E010E0FA93EA939A938A930E9414
:14073E0021068AB387608ABB22242BBAA09A25BA889A22BAD5
:14075200CEDE74DF04E510E02BDF00ED17E013DFC6DEC5DF93
:14076600222426B880EC87B98EEC86B97894FFCF24960895C5
:14077A0024B1332705B111271801322C2224220E331E81018E
:14078E0008950A921A922A923A924A925A926A927A928A92FE
:1407A2009A920A931A932A933A938A939A93AA93BA93EA93F2
:1407B600FA930FB60A920E94C5052D9788E694E0FE01389662
:1407CA0005E010E0FA93EA939A938A930E94210640E050E0D9
:1407DE0060E070E0488359836A837B8387EC87B9369AC4DFBF
:1407F20081E690E0E0916000FF27EE0FFF1FE80FF91F118367
:140806000083809160008F5F809360008F3008F4F7C02224D1
:14081A0020926000AA2419C081E690E0EA2DFF27EE0FFF1FE2
:14082E00E80FF91F2080318044245524688079808A809B806F
:14084200620C731C841C951C688279828A829B82A3948A2D58
:140856008F3020F34FE050E060E070E0088119812A813B8143
:14086A007A936A935A934A930E941D05088319832A833B8350
:14087E00288039804A805B8040E955E660E070E05A924A92A4
:140892003A922A928A019B010E9487054FEF53E060E070E074
:1408A6007A936A935A934A930E941D050C831D832E833F8304
:1408BA0040E157E260E070E00C811D812E813F817A936A939C
:1408CE005A934A930E941D050C8740E157E260E070E00C817E
:1408E2001D812E813F817A936A935A934A930E941F050C83CC
:1408F6001D832E833F8348EE53E060E070E00C811D812E8108
:14090A003F817A936A935A934A930E941D050B8748EE53E086
:14091E0060E070E00C811D812E813F817A936A935A934A93C7
:140932000E941F050C831D832E833F8344E650E060E070E05F
:140946000C811D812E813F817A936A935A934A930E941D056B
:14095A000A8744E650E060E070E00C811D812E813F817A9367
:14096E006A935A934A930E941F050C831D832E833F834AE01C
:1409820050E060E070E00C811D812E813F817A936A935A9310
:140996004A930E941D0509874AE050E060E070E00C811D8107
:1409AA002E813F817A936A935A934A930E941F050C831D8301
:1409BE002E833F832C803D804E805F802886909A08E813E1E0
:1409D200DADD909808E813E1D6DD25E002E031DE0C8578DEBE
:1409E6000CE076DE26E002E02ADE0B8571DE0A856FDE27E00B
:1409FA0002E023DE09856ADE088568DE2D960E94CC0509908E
:140A0E000FBEF991E991B991A991999189913991299119910D
:140A22000991999089907990699059904990399029901990F5
:140A360009901895E89401C0689430D0CC2409C0E89401C037
:140A4A0068942AD037FD0E94F305B7FD52D0772488249924FA
:140A5E00AA24BB2442D0C1F045D0B1F0E8E2000F111F221F14
:140A7200331F771C881C991CAA1CBB1C88169906AA06BB06E7
:140A860028F0881A990AAA0ABB0A0395EA9559F726F4082DD0
:140A9A00192D2A2D3B2D13C07A928A929A92AA92BA92CA9238
:140AAE00EA938A939A93AA93BA938B859C85AD85BE85C32E4C
:140AC2000EF0CB260895C7FC0E94F305B991A991999189916F
:140AD600E991C990B990A99099908990799024960895E02F06
:140AEA00E12BE22BE32B0895E82FE92BEA2BEB2B089580952C
:140AFE009095A095B0958F5F9F4FAF4FBF4F08950E94FC051D
:140B12007A920E94150659F177240E941B0619F48C019D0126
:140B260024C00A921A92089FB02CA12C289F902C812C189F58
:140B3A00A00C911C871C099FA00C911C871C199F900C811C16
:140B4E000A9F900C811C389F800C299F800C1A9F800C0B9F0B
:140B6200800C199009900B2D1A2D292D382D79900C940A06BE
:140B76007A936A935A934A9308954991599169917991089595
:140B8A007A936A935A934A93BA92AA920895A990B990499102
:140B9E0059916991799108955A934A93DA92CA92BA92AA929E
:140BB2000895A990B990C990D9904991599108957A936A93E3
:140BC6005A934A93DA92CA92BA92AA920895A990B990C99089
:140BDA00D99049915991699179910895009510952095309585
:140BEE000F5F1F4F2F4F3F4F08958A929A92AA92BA92EA9321
:140C02008A939A93AA93BA9389859A85AB85BC850895B99185
:140C1600A99199918991E991B990A9909990899024960895B7
:140C2A00EE27E02BE12BE22BE32B0895EE27E82BE92BEA2B81
:140C3E00EB2B0895AA93BA93EA93FA930A92AF81B885ED81E4
:140C5200FE810030010731F0C8950D92319601501040F7CF8C
:0E0C66000990F991E991B991A9912496089508
:00000001FF
