:030000000200DB20
:0C00DB00787FE4F6D8FD75812002000358
:10009500202079616E6C696E6469616E7A690020F1
:0C00A5003135303031313632313939001C
:1000B100E4FDEDC39FEE6480F87480985009E4FC80
:0700C1000CBCFDFC0D80EBFF
:0100C8002215
:1000C900C287D286D28500000000E5A0339200C223
:0100D90085A1
:0100DA002203
:10005D001200C940FBC287C286C28500008FA00076
:0C006D00000000D28500000000C28522C7
:0700E700EF4480FF02005D01
:100079001200C940FBD287C286C28500008FA0004A
:0C008900000000D28500000000C28522AB
:100037007F3812005D7F017E001200B17F0C120035
:100047005D7F011200B17F0612005D7F011200B1D2
:0600570012005D0200B181
:100003001200377F0A7E001200B1E4FF1200E7EE10
:1000130090009593FF60061200790E80F27F4112E3
:1000230000E7E4FEEE9000A493FF60061200790E51
:0400330080F280FED9
:00000001FF
