:040000000C94330029
:040018000C9418012B
:14005400C0F9A4B0999282F88090EFDFBF7F01000000CFE515
:14006800D4E0CDBFDEBFC051D0400AEA08830024E4E6F0E049
:14007C0010E0E736F10711F00192FBCF0083E2E6F0E0A0E66C
:14009000B0E010E0E636F10721F0C89531960D92F9CF0E948A
:1400A4001001FFCF002701C003950F3FE8F3089522242DBCF4
:1400B8002CBC8AE08EBD25BE2BBE89B7806189BF08950E9423
:1400CC0056012090620084E6829D100120916300332708EEB9
:1400E00013E00E943E01A801420D531D209061008AE0829D36
:1400F400400D511D209060003324420D531D04EF11E09A0198
:140108000E942401A801CA0180708BBDCA0190708ABD0E94BC
:14011C00590108950E94560144271AC080E690E0E42FFF278B
:14013000E80FF91FE081FF2784E590E0E80FF91FE491E8BB25
:140144008EE590E0E42FFF27E80FF91FE491EBBBA9DF8FEF5B
:140158008BBB4395443020F30E945901089504C0DBDF81E076
:14016C0080936600CF9BFACF04C0D4DF81E080936500CE9B1A
:14018000FACF04C0CDDF81E080936400CD9BFACF80916600B2
:14019400813081F4809162008F5F8093620093DF8091620076
:1401A8008A3019F4222420926200222420926600809165004E
:1401BC00813081F4809161008F5F809361007FDF8091610065
:1401D0008A3019F42224209261002224209265008091640029
:1401E400813081F4809160008F5F809360006BDF8091600054
:1401F8008A3019F42224209260002224209264000895222495
:14020C002ABA8FEF87BB81BB84BB2BBA88BB85BB82BB08957D
:14022000F4DF48DF789402C09EDF7ADFFDCF08952A922FB622
:140234002A9225B2209425BA29902FBE29901895689401C0C7
:14024800E894EA92FA928A93EE24FF2480E1000F111FEE1C22
:14025C00FF1CE216F30618F0E21AF30A03958A95A1F716F428
:140270000E2D1F2D8991F990E99008950A921A928A939A93A8
:14028400029FC001129F900D039F900D8C01999189911990FD
:1402980009900895FA92EA92DA92CA92BA92AA927A936A93BA
:1402AC005A934A930895E1E049915991E0FD089569917991D4
:1402C000E1FD0895A990B990E2FD0895C990D990E3FD089572
:0602D400E990F990089585
:00000001FF
