:040000000C948D02CD
:140054004507450745074507450745074507450745074507A0
:14006800D6073B08D70820092009200977B7D7E77BBBDBEB22
:14007C007DBDDDED7EBEDEEE7FBFDFEF000000000000000058
:1400900000000000000000000000000000000000000000005C
:1400A400000000000000000000000000000000000000000048
:1400B800000000000000000000000000000000000000000034
:1400CC00000000000000000000000000000000000000000020
:1400E00000000000000000000000000000000000000000000C
:1400F4000000000000000000000000000000000000000000F8
:140108000000000000000000000000000000000000000000E3
:14011C000000000000000000000000000003F3E00F8FFC005F
:1401300000000000000000000003F3F00F8FFE000000000039
:14014400000000000007F9F00F9FFF0000000000000000000A
:140158000007F9F81F9FFF0000000000000000000007F9F8E6
:14016C001F1FFF800000000000000000000FFCF81F3F1F80C2
:1401800000000003FFFFFC00000FFCFC3F3F1F800000000743
:14019400FFFFFC00000FFC7C3E3E1F8000000007FFFFFC00BA
:1401A800001FFE7C7E7E3F0020000001C0000000001FBE7E33
:1401BC007E7EFF007000000DBFDFB000001F3E3E7C7FFF00D4
:1401D0007000001DFFDFB000003F3F3E7CFFFE007000001D3E
:1401E400FFD83000003F1F3FFCFFFC006000003DF6D83000D1
:1401F800003F1F9FF8FFF000E000003DF6DFB000003FFF9F90
:14020C00F9FFE000C000007DF6DFB000007FFF9FF9FBE00053
:14022000400000EDF6D83000007FFFCFF1F3F000400000ED51
:14023400F6D83000007FFFCFF3F3F000400000EDF6DFB000E3
:1402480000FFFFCFF3F1F000600001FFFFFFFE0000F807E7BF
:14025C00E3E1F008201E01FFFFFFFE0000F803E7E7E1F8FFF7
:140270003C3F00000000000001F803E3E7E1F9FFFFF78000EA
:140284000000000000F001E3C7C0F9E0FFFFC0000000000074
:1402980000000003C00000807CFCC0000000000000000001D6
:1402AC00C00000007FFCF00000000000000000018000000092
:1402C0007FFFF00000000000000000018000000027FFB00065
:1402D40000000000000000008000000037FF10000000000050
:1402E80000000000000000003FFF1C000000000000000000A8
:1402FC00000000003FFF0C00000000000000000000000000A4
:14031000FFFF0000000000000000000000000001FFFF0000DC
:14032400000000000000000000000001DFFF000000000000E6
:1403380000000000000000011FFF0000000000000000000092
:14034C0000000001BFFF0000000000000001F83C00CC0000DD
:14036000FFFE000000000000001F6C37F18C0000E7FE000068
:14037400000000000003606F37FF8000CFFC00000000000022
:14038800001FFE6C36798000EEF0000000000000000360EC7C
:14039C003671800078000000000000000003EC6C3679800024
:1403B0003C000000000000000007F86C37ED80003E000000B0
:1403C40000000000001F306C366D80007600000000000000D1
:1403D8000003766C3661800006000000000000000003DE6CC2
:1403EC0037E180000600000000000000000F0E6CF66F000071
:140400000600000000000000000000000000000000000000E2
:140414000000000000000000000000000000000000000000D4
:140428000000000000000000000000000000000000000000C0
:14043C000000000000000000000000000000000000000000AC
:14045000000000000000000000000000000000000000000098
:14046400000000000000000000000000000000000000000084
:14047800000000000000000000000000000000000000000070
:14048C0000000000000000000000000000000000000000005C
:1404A000000000000000000000000000000000000000000048
:1404B400000000000000004F0000004014AE2B41FFFFFF7FFB
:1404C80000000000008000000001000000303132333435363A
:1404DC003738395F3A2E5600CAE4B3F6B2A8D0CE3A00B2A864
:1404F000D0CDB7E5D6B53A00B2A8D0CEC6B5C2CA3A00D5FDEF
:14050400CFD2B2A800B7BDB2A8202000C8FDBDC7B2A80048EF
:140518007A00CFE5D4E0CDBFDEBFC051D0400AEA0883002400
:14052C00ECEAF0E010E0EC3AF10711F00192FBCF0083EEEC4C
:14054000F4E0A0E6B0E015E0EA31F10721F0C89531960D92E1
:14055400F9CF0E949706FFCF0AE010E04BD0D89A20E300272D
:1405680010D00AE010E044D02CE000270AD00AE010E03ED0BC
:14057C0021E0002704D00AE010E038D008950E94E609422FEE
:14059000602F662319F488EFA82E02C08AEFA82E642F607F62
:1405A400842F8F708295807F482F0A2D10D00AE010E020D023
:1405B800062F0BD00AE010E01BD0042F06D00AE010E016D091
:1405CC000E94DC0908950E94E80966270AC0402F407811F0E5
:1405E000D99A01C0D998DA9ADA98000F63956830A0F30E94A8
:1405F400D90908950E94E809442755270BC06627772702C042
:140608006F5F7F4F6A30E0E07E07D0F34F5F5F4F4017510795
:14061C0090F30E94D90908950E94E40968016627772704E619
:1406300010E0E2DF26E30027A8DF04E610E0DCDF442717C077
:14064400242F205800279FDF20E800279CDFAA240AC01B01D4
:140658006F5F7F4FF101EC0DFD1D249101E091DFA3948A2DF9
:14066C00803198F34395403238F3442717C0242F2058002795
:1406800084DF28E8002781DFAA240AC01B016F5F7F4FF1012A
:14069400EC0DFD1D249101E076DFA3948A2D803198F3439552
:1406A800403238F30E94DF09089521E0002769DF08950E94CB
:1406BC00E809622F402F55274030450789F04130E0E05E07F2
:1406D00081F04230E0E05E0779F04330E0E05E0771F0443038
:1406E400E0E05E0769F00FC0462F40580EC0462F40580BC002
:1406F800462F405708C0462F485705C0462F485602C0462FF7
:14070C004058242F00273BDF0E94D90908950E94E609A22E2B
:14072000602F4E815F812A2D062FC7DF09C0FA01208101E00F
:140734002ADF4F5F5F4F01E010E05CDFFA012080222099F7D3
:140748000E94DC0908950E94EA09402F87E690E0E42FFF275F
:14075C00E80FF91F208101E012DF01E010E046DF0E94ED0979
:14077000089522979EDF9DDF86E790E099838883222701E0F8
:14078400CADF80E890E099838883222702E0C3DF8AE890E00A
:1407980099838883222704E0BCDF89EA90E09983888327E04D
:1407AC0003E0B5DF84E990E09983888325E00027AEDF22964D
:1407C000089524E004E079DF0BE0C1DF00916000BEDF25E02A
:1407D40004E071DF00916100B8DF00916200B5DF26E004E0E3
:1407E80068DF00916300AFDF00916400ACDF27E004E05FDF8B
:1407FC0000916500A6DF00916600A3DF08950E94EA09919A98
:14081000929844270AC0919A17FF02C0909A01C09098919836
:14082400000F111F43954031A0F3929A91980E94ED0908951B
:140838000E9423090E94E6096C9740E05BE167EB70E0FE014D
:14084C0022A033A044A055A0421553056405750548F440E03C
:140860005BE167EB70E0FE0142A353A364A375A3AEA0BB2480
:14087400AA2011F4BB2051F0C5018130E0E09E0769F082309E
:14088800E0E09E0789F018C088E091E29983888390E29F870C
:14089C008E8717C08AE091E29983888390E29F878E870FC0DC
:1408B00088E291E29983888390E29F878E8707C088E091E2E1
:1408C4009983888390E29F878E8700EC14E00E942F0A3A93C4
:1408D8002A931A930A930CEB14E00E942F0A3A932A931A9308
:1408EC000A93FE0122A433A444A455A4569447943794279493
:14090000810192010E949D0A3A932A931A930A930E94830B81
:1409140041E050E060E070E0FE0122A433A444A455A424222B
:14092800352246225722810192010E949D0A3A932A931A93EE
:14093C000A930E94F10A0E94860BFE01008F118F228F338F99
:14095000FE01208C318C428C538C5A924A923A922A9208EB3B
:1409640014E00E942F0A3A932A931A930A930E94520B2CF1C0
:14097800FE01208C318C428C538C5A924A923A922A9208EB13
:14098C0014E00E942F0A3A932A931A930A930E94FC0A0E946A
:1409A0005D0A1801290140E050E060E070E8240E351E461EC8
:1409B400571EFE01248A358A468A578A0CC0FE01008D118DA7
:1409C800228D338D0E945D0AFE01048B158B268B378BFE0103
:1409DC002488358846885788FE01208A318A428A538A4FEFA6
:1409F0005FE360E070E0FE012088318842885388242235227F
:140A0400462257223B822A823F822E8240E050EC6FEF7FE00A
:140A1800FE01208831884288538824223522462257228EE0D9
:140A2C0090E08A93810192010E94430A1D830C83180139861E
:140A400028868A819B8190649B838A838C819D8190649D836F
:140A54008C838E819F8190689F838E838885998590689987E2
:140A6800888780E090EC9B878A8790EE9D878C87AA240AC00F
:140A7C0082E08A9DF001CE01E80FF91F00811181BEDEA39428
:140A90008A2D883098F36C960E94DC09249608950E942309AA
:140AA4000E94E80940E452E46FE070E0FE0124803580468094
:140AB80057807A936A935A934A93810192010E942809009304
:140ACC00600040E452E46FE070E0FE012480358046805780C8
:140AE0007A936A935A934A93810192010E942A09FE010483BE
:140AF40015832683378340EA56E861E070E0FE0124803580A2
:140B0800468057807A936A935A934A93810192010E94280980
:140B1C000093610040EA56E861E070E0FE01248035804680BA
:140B300057807A936A935A934A93810192010E942A09FE011D
:140B4400048315832683378340E157E260E070E0FE0124808E
:140B58003580468057807A936A935A934A93810192010E94AC
:140B6C0028090093620040E157E260E070E0FE01248035800D
:140B8000468057807A936A935A934A93810192010E942A0906
:140B9400FE01048315832683378348EE53E060E070E0FE01D4
:140BA80024803580468057807A936A935A934A93810192015A
:140BBC000E9428090093630048EE53E060E070E0FE012480C0
:140BD0003580468057807A936A935A934A93810192010E9434
:140BE4002A09FE01048315832683378344E650E060E070E05F
:140BF800FE0124803580468057807A936A935A934A9381019E
:140C0C0092010E9428090093640044E650E060E070E0FE018E
:140C200024803580468057807A936A935A934A9381019201E1
:140C34000E942A09FE0104831583268337834AE050E060E0BC
:140C480070E0FE0124803580468057807A936A935A934A937F
:140C5C00810192010E942809009365004AE050E060E070E0BA
:140C7000FE0124803580468057807A936A935A934A93810125
:140C840092010E942A09009366000E94D909249608950E947E
:140C9800E80980EF88BB28C0442723C084E890E0E42FFF275A
:140CAC00E80FF91FE491E8BBE42FFF27E80FF91FE49126B278
:140CC0002E1691F008EE13E097DC66B384E890E0E42FFF27D1
:140CD400E80FF91FE4916E1729F026B26215E9F3062F07C0C3
:140CE800439583E08417D0F686B3803FA9F60E94D9090895A4
:140CFC000E94E809CADF402F66270CC084E790E0E62FFF27CA
:140D1000E80FF91FE4914E1711F4062F05C063958FE08617E3
:140D240088F70FEF0E94D9090895A69700240CA20BA240E041
:140D380050E060E070E0FE01468357836087718740E050E016
:140D4C0060E070E0FE01428753876487758740E050E060E0EA
:140D600070E0FE0146875787608B718B40E050E060E070E0BE
:140D7400FE01428B538B648B758B40E050E060E070E0FE01F3
:140D8800468B578B608F718F40E050E060E070E0FE01428F05
:140D9C00538F648F758F40E050E060E070E0FE01468F578FD0
:140DB00060A371A348EE53E060E070E0FE014283538364839E
:140DC40075838AB38C618ABB8FEF8BBB80EF87BB8FEF88BB7E
:140DD80081BB82BB2224288208EE13E020E030E027DDB8DB0E
:140DEC0062DC08E810E018DC00E315E7FFDBB0DBBADC26E001
:140E000003E05BDC0AE0A3DC25E003E056DC0AE09EDC24E0D9
:140E140003E051DC0AE099DC23E003E04CDC0AE094DC22E0F1
:140E280003E047DC0AE08FDC21E003E042DC0AE08ADC2227C0
:140E3C0003E03DDC0AE085DCBEDCFCC159DF0AA3802F0F3F22
:140E500009F4F6C1C82EDD24C6018030E0E09E070CF4EEC158
:140E64008FE08C159D050CF4E9C102E010E096010E94990971
:140E7800F80184E590E0E80FF91F05901490F00109940BA013
:140E8C0003940BA2A02CBB24C5018130E0E09E07F1F08230F4
:140EA000E0E09E0749F18330E0E09E0709F433C08430E0E023
:140EB4009E0709F43DC08530E0E09E0709F447C08630E0E0F7
:140EC8009E0709F451C08730E0E09E0709F45BC0B3C1222772
:140EDC0003E0EDDB0AA135DC2AA0332444245524FE012682F2
:140EF000378240865186A4C121E003E0DEDB0AA126DC2AA01F
:140F0400332444245524FE01228633864486558695C122E044
:140F180003E0CFDB0AA117DC2AA0332444245524FE012686ED
:140F2C003786408A518A86C123E003E0C0DB0AA108DC2AA02E
:140F4000332444245524FE01228A338A448A558A77C124E014
:140F540003E0B1DB0AA1F9DB2AA0332444245524FE01268AEA
:140F6800378A408E518E68C125E003E0A2DB0AA1EADB2AA03F
:140F7C00332444245524FE01228E338E448E558E59C126E0E4
:140F900003E093DB0AA1DBDB2AA0332444245524FE01268EE6
:140FA400378E40A251A24AC126E003E084DB0AE0CCDB40E09B
:140FB80050E060E070E0FE01468357836087718725E003E0FC
:140FCC0076DB0AE0BEDB40E050E060E070E0FE0142875387BB
:140FE0006487758724E003E068DB0AE0B0DB40E050E060E0E7
:140FF40070E0FE0146875787608B718B23E003E05ADB0AE003
:14100800A2DB40E050E060E070E0FE01428B538B648B758BDE
:14101C0022E003E04CDB0AE094DB40E050E060E070E0FE017C
:14103000468B578B608F718F21E003E03EDB0AE086DB40E0A2
:1410440050E060E070E0FE01428F538F648F758F222703E003
:1410580030DB0AE078DB40E050E060E070E0FE01468F578FA2
:14106C0060A371A300240BA2E5C0FE012284338444845584E6
:1410800040EA56E861E070E05A924A923A922A928A019B01EC
:141094000E94A90918012901FE01668077808084918440E498
:1410A80052E46FE070E09A928A927A926A928A019B010E9446
:1410BC00A90938014901620C731C841C951CFE012684378439
:1410D0004088518840E157E260E070E05A924A923A922A9231
:1410E4008A019B010E94A909600E711E821E931EFE01228886
:1410F80033884488558848EE53E060E070E05A924A923A92F3
:14110C002A928A019B010E94A909600E711E821E931EFE014B
:1411200026883788408C518C44E650E060E070E05A924A92F3
:141134003A922A928A019B010E94A909600E711E821E931E56
:14114800FE01228C338C448C558C4AE050E060E070E05A92A0
:14115C004A923A922A928A019B010E94A909600E711E821E03
:14117000931EFE01268C378C40A051A0620C731C841C951C27
:14118400FE0162827382848295820DA00882FE010281138115
:14119800248135814DDBFE0102811381248135817BDC0BDB12
:1411AC0049C00CA003940CA2E02CFF24C7018130E0E09E0728
:1411C00049F08230E0E09E07B9F08330E0E09E0729F136C0FA
:1411D400002403940DA20882FE01028113812481358128DB9F
:1411E80082EA90E09983888325E0002792DA24C082E08DA3E2
:1411FC00082E0882FE01028113812481358116DB8BE990E0D9
:141210009983888325E0002780DA12C000240DA20882FE01EF
:14122400028113812481358105DB84E990E09983888325E05B
:1412380000276FDA00240CA203CEA69608953A932A931A937F
:14124C000A930895E89401C068942FD0CC2408C0E89401C027
:14126000689429D037FD53D0B7FD5AD0772488249924AA247E
:14127400BB2441D0C1F044D0B1F0E8E2000F111F221F331F74
:14128800771C881C991CAA1CBB1C88169906AA06BB0628F003
:14129C00881A990AAA0ABB0A0395EA9559F726F4082D192D84
:1412B0002A2D3B2D13C07A928A929A92AA92BA92CA92EA93E3
:1412C4008A939A93AA93BA938B859C85AD85BE85C32E0EF0AD
:1412D800CB260895C7FC17D0B991A99199918991E991C9902F
:1412EC00B990A99099908990799024960895E02FE12BE22BA2
:14130000E32B0895E82FE92BEA2BEB2B08950095109520954C
:1413140030950F5F1F4F2F4F3F4F089580959095A095B095C7
:141328008F5F9F4FAF4FBF4F08950A921A928A939A93029FF9
:14133C00C001129F900D039F900D8C0199918991199009903C
:1413500008950E940A0A7F920E94230A39F177240E94290ABC
:1413640019F48C019D0120C0089FB02CA12C289F902C812CDD
:14137800189FA00C911C871C099FA00C911C871C199F900CB6
:14138C00811C0A9F900C811C389F800C299F800C1A9F800CD2
:1413A0000B9F800C0B2D1A2D292D382D7F900C94180AE2E036
:1413B4000C94EE09E4E00C94EE09E8E00C94EE09FA92EA92CC
:1413C800DA92CA92BA92AA927A936A935A934A930895E1E08F
:1413DC0049915991E0FD089569917991E1FD0895A990B990BE
:1413F000E2FD0895C990D990E3FD0895E990F99008950095FA
:141404001095209530950F5F1F4F2F4F3F4F08958A929A92E8
:14141800AA92BA92EA938A939A93AA93BA9389859A85AB858A
:14142C00BC850895B991A99199918991E991B990A9909990E1
:14144000899024960895EE27E02BE12BE22BE32B0895EE272F
:14145400E82BE92BEA2BEB2B0895EA93FA930A92E02FF12FC0
:14146800C895002D3196C895102D3196C895202D3196C895F0
:14147C00302D0990F991E99108950F920990002031F036957F
:141490002795179507950A94F8CF0F9008950E94D00B14D042
:1414A400022F132F87FD02C00C94D30B109501951F4F0C94B4
:1414B800D30B0E94D00B08D087FF02C00E94010A0C94D30B7A
:1414CC00BEE001C0BEE10E94D60B69F0B31B09F072F488235A
:1414E00022F014E004EC0C942F0A14E00AEC0C942F0A14E072
:1414F40008EC0C942F0A3395D2F330E0B85052F4B85F322FB4
:14150800212F102F00E806C0012F122F20E0B850B830D0F76A
:14151C00BB2331F03695279517950795BA95D1F708952227F0
:1415300017FD2095332727FD30950E94D00B02D00C94D30BCE
:14154400882733231AF40E94010A8095B02FB12BB22BB32B48
:1415580011F40C94EC0BB6E105C0B395369527951795079570
:14156C003323C9F7222349F4B850212F102F00E0F9CFBA9545
:14158000000F111F221FDAF73B2F0C94160CDA92EA92FA9266
:141594008A932A923A924A929A93AA93BA930895B991A991EA
:1415A80099914990399029908991F990E990D99008952A84DA
:1415BC003B844C849D8508950E851F85288939890895EADFBD
:1415D0000F920FB628960FBE0F900895D8DFF2DFECCF02D0C5
:1415E4000C9423090E94EE0A12D00C94E70A02D00C9423097C
:1415F8000E94EE0A09D00C94E70A8A2F392F242D132D022DFA
:14160C000C94160C90580E94040C9038C9F3303891F3B32F1C
:14162000B91BA3F32AF039F402151305240518F40E94F80BFC
:14163400F4CFB83118F0222433244424B83028F0232C342C3A
:141648004424B850F9CFBB2329F0469437942794BA95D9F7E0
:14165C00B82FBA274AF018D098F62795179507953F5F73F6F7
:141670000C94E50B13D011F40C94EC0B10F40E94DF0B222382
:141684001AF2000F111F221F3150CBF70C94E50B020D131DB4
:14169800241D089502191309240908950E94EE0A02D00C9453
:1416AC00E70A02D0BB230895332382F0992342F0391740F0B6
:1416C00029F402151305240518F021F0B1E00895BFEF08950F
:1416D400BB2708959923D2F73917B0F3B9F702151305240503
:1416E80088F3A1F3F1CFBFE73B2F2B2B0FEF1FEF08950027E9
:1416FC001127222733278827089502D00C9423090E94EE0A7B
:141710000F92CF9204D0CF900F900C94E70A0E94040C59F362
:14172400903849F38A270894391FFBF20ED02F2D1E2D0D2D5C
:1417380022232AF03A95CC0C001F111F221F3F5F93F20C9444
:14174C00160C229DC02CD12C249DE02CF12C129DC10CDB1E60
:14176000EB1EFB1E039DC10CDB1EEB1EFB1E139DC00CD11C62
:14177400EB1EFB1E049DC00CD11CEB1EFB1E239DD00CE11C2A
:14178800FB1E149DD00CE11CFB1ECC2022F48894DB1EEB1E71
:14179C00FB1E08958A93BA930895B99189910895832F8078D1
:1417B000220F331F30580894279530380895109520950195CD
:1417C4001F4F2F4F0895BFE73B2F2B2BBFEF0B2F1B2F089553
:1417D800002711272227332788270895932F202E312E422ED0
:1417EC00A82F08952A923A924A929A93AA93F4DF89913991F0
:141800002991199109910895832FB0E8220F331F3B27BB0F40
:1418140027958078A92FB0E8440C991F9B27BB0F4794A07815
:1418280030380895220FB0E8B327880FB79527953B2F08955E
:00000001FF
