:040000000C94360026
:040014000C949200B6
:1400540001020304C0F9A4B0999282F880908880C6C0868E2A
:14006800FEFDFBF7CFE5D4E0CDBFDEBFCE51D0400AEA088358
:14007C000024E8E7F0E010E0E138F10711F00192FBCF0083CB
:14009000E4E5F0E0A0E6B0E010E000E00BBFEC36F10721F0E8
:1400A400C89531960D92F9CF0E948700FFCF002701C0039546
:1400B8000F3FE8F308954A9344271AC080E690E0E42FFF273D
:1400CC00E80FF91FE081FF2784E690E0E80FF91F208028BA1F
:1400E00084E790E0E42FFF27E80FF91F20802BBAE0DF8FEF27
:1400F4008BBB4395443020F34991089580E289BF22242FBC01
:1401080082E88EBD08958FEF8ABB87BB8BBB88BBF3DF789425
:14011C0001C0CFDFFECF08951A922A923A924A925A920A935D
:140130001A938A939A93AA93EA931FB61A9226B437B4309202
:140144007F0020927E0020907C0030907D0000917E001091DF
:140158007F000219130920907E0030907F0030927D0020927F
:14016C007C0080E094E08017910738F4093CE4E01E0718F49A
:140180000027112724C081E698E08017910738F40932E9E0EA
:140194001E0718F401E010E018C088E594E38017910708F072
:1401A80090C00032E5E31E0708F08BC02224209280003324C2
:1401BC0030927B0020927A0030927900209278007EC0809112
:1401D00080008F5F80938000803188F420907A0030907B0088
:1401E400202A312A30927B0020927A00220C331C30927B003F
:1401F80020927A0066C080918000803159F420907A00309028
:14020C007B00202A312A30927B0020927A0057C080918000AD
:14022000803288F42090780030907900202A312A309279005B
:1402340020927800220C331C309279002092780042C0809197
:1402480080008032F1F52090780030907900202A312A3092C2
:14025C0079002092780020907A0030907B00232C3324369416
:1402700027943694279436942794369427942092600080910D
:140284007A0090917B00892F99278F709070809361002090B5
:14029800780030907900232C33243694279436942794369427
:1402AC00279436942794209262008091780090917900892F0F
:1402C00099278F7090708093630019901FBEE991A991999191
:1202D40089911991099159904990399029901990189520
:00000001FF
