:040000000C943B0021
:140054006D637573747564696F2E636F6D2E636E0054656C2A
:0D0068003A31353938303834353630310012
:14007600CFE5D4E0CDBFDEBFCE51D0400AEA08830024E1E84A
:14008A00F0E010E0E138F10711F00192FBCF0083E4E5F0E017
:14009E00A0E6B0E010E000E00BBFE537F10721F0C895319655
:1400B2000D92F9CF0E94E801FFCF02C00150104081E090E046
:1400C60080179107C8F308954A9304EF11E0F3DFD89804EFA9
:1400DA0011E0EFDFD99A04EF11E0EBDF1AC0DA9A04EF11E000
:1400EE00E6DF222427BA8FEF88BB04EF11E0DFDF46B34078FE
:1401020004EF11E0DADF8FEF87BB88BB04EF11E0D4DFDA9840
:1401160004EF11E0D0DF442321F749910895AA92A02ED2DF91
:14012A0004EF11E0C6DFD89804EF11E0C2DFD99804EF11E0EE
:14013E00BEDFDA9A04EF11E0BADFA8BA04EF11E0B6DFDA98D2
:1401520004EF11E0B2DFA99008958FEF87BB222428BA08E37B
:14016600DEDF08EE13E0A7DF01E0D9DF08EE13E0A2DF08EE60
:14017A0013E09FDF08EE13E09CDF08EE13E099DF08EE13E052
:14018E0096DF08EE13E093DF08EE13E090DF02E0C2DF08EEBC
:1401A20013E08BDF06E0BDDF08EE13E086DF0CE0B8DF08EEA3
:1401B60013E081DF08E3B3DF08EE13E07CCFAA92A02E82DFC6
:1401CA0004EF11E076DFD89A04EF11E072DFD99804EF11E0EC
:1401DE006EDFDA9A04EF11E06ADFA8BA04EF11E066DFDA9822
:1401F20004EF11E062DFA9900895AA9267DF04EF11E05BDF5E
:14020600D89A04EF11E057DFD99A04EF11E053DFDA9A04EF68
:14021A0011E04FDF222427BA04EF11E04ADFA6B204EF11E041
:14022E0046DF8FEF87BB04EF11E041DFDA9804EF11E03DDF61
:140242000A2DA99008950E940A02B901580100E468DFD89A3D
:14025600D998A5010AC0FB01A080B180DA9AA8BADA986E5F51
:14026A007F4F415050404030450799F70C9411020E940A02E4
:14027E00A80100E850DFD89AD99802E310E017DF66270BC0A6
:14029200FA01A080A8BADA9A02E310E00EDFDA984F5F5F4FD7
:1402A6006395603198F300EC3ADFD89AD99802E310E001DF93
:1402BA0066270BC0FA01A080A8BADA9A02E310E0F8DEDA98CA
:1402CE004F5F5F4F6395603198F30C9411020E940A025901F1
:1402E200B8014E815F816130E0E07E0721F4B50160587F4F79
:1402F60003C0B50160547F4F062F11DF4030450721F481E0A2
:14030A0090E05C0102C0AA24BB2489E090E08417950718F487
:14031E0061E070E002C0662777271501262A372A222011F43F
:14033200332019F040E350E002C0405D5F4FD89A04EF11E0A5
:14034600BADED99804EF11E0B6DE48BB04EF11E0B2DEDA9A37
:14035A0004EF11E0AEDEDA9804EF11E0AADE0C9411020E94EC
:14036E001802A22E602F4A855B85613019F46A2D605802C0A4
:140382006A2D6054062FCDDED89A04EF11E095DED99804EF0F
:1403960011E091DEA884B98414C0FA01C08004EF11E089DE30
:1403AA00C8BA04EF11E085DEDA9A04EF11E081DEDA9804EF5A
:1403BE0011E07DDE4F5F5F4FAA94AA2051F70C9421022497B5
:1403D2008FEF8ABB8BBB81BB82BB08E813E16DDEBCDE80E666
:1403E60090E09B838A838DE090E09983888321E001E0B9DFEA
:1403FA0081E790E09B838A8380E190E09983888321E002E011
:14040E00AEDF249608957A936A935A934A93BA92AA920895FD
:14042200A990B990499159916991799108957A936A935A93E8
:140436004A93DA92CA92BA92AA920895A990B990C990D990A4
:0A044A004991599169917991089543
:00000001FF
