:030000000200E813
:0C00E800787FE4F6D8FD75810702000364
:10000300E4F58020B2137F057E001200CA20B209F6
:1000130030B2FD1200C47590FF20B3207F057E002F
:100023001200CA20B31630B3FD1200C47590FF7FCF
:10003300C87E001200CA1200C47590FF20B4347F3A
:10004300057E001200CA20B42A30B4FD1200C47524
:1000530090FF7FC87E001200CA1200C47590FF7F14
:10006300C87E001200CA1200C47590FF7FC87E00CC
:100073001200CA20B5417F057E001200CA20B537A1
:1000830030B5FD1200C47590FF7FC87E001200CA10
:100093001200C47590FF7FC87E001200CA1200C40C
:1000A3007590FF7FC87E001200CA1200C47590FFCE
:1000B3007FC87E001200CA7F0A7E001200CA0200B7
:0100C3000636
:0600C400E4F5907FC8FE88
:1000CA00D3EF9400EE940040147D6E7C00ED1D7019
:0D00DA00011CED4C70F7EF1F70E61E80E377
:0100E70022F6
:00000001FF
