:040000000C943F001D
:140054000000003F000020410000803D000000003031323375
:140068003435363738395F3A2E5600BBB7BEB3CEC2B6C83AF5
:01007C000083
:14007E00CFE5D4E0CDBFDEBFCE51D0400AEA08830024E9E73B
:14009200F0E010E0E937F10711F00192FBCF0083E4E6F0E007
:1400A600A0E6B0E010E000E00BBFED37F10721F0C895319645
:1400BA000D92F9CF0E94C401FFCF0AE010E049D0D89A2227E8
:1400CE0000270FD00AE010E042D02CE0002709D00AE010E046
:1400E2003CD021E0002703D00AE010E036C00E949E02422F80
:1400F600A02EAA2019F488EFA82E02C08AEFA82E642F607F81
:14010A00842F8F708295807F482F0A2D0FD00AE010E01FD0C3
:14011E00062F0AD00AE010E01AD0042F05D00AE010E015D033
:140132000C94A5024A936A9344270AC0602F607811F0D99A88
:1401460001C0D998DA9ADA98000F43954830A0F369914991C7
:14015A0008950E949402442755270BC06627772702C06F5F4F
:14016E007F4F6A30E0E07E07D0F34F5F5F4F4017510790F37F
:140182000C9499020E94BA0258016627772704E610E0E3DFB0
:1401960026E30027AADF04E610E0DDDF442717C0242F2058F9
:1401AA000027A1DF20E800279EDFCC240AC01B016F5F7F4F7C
:1401BE00F101EA0DFB1D208101E093DFC3948C2D803198F3EC
:1401D2004395403238F3442717C0242F2058002786DF28E8FB
:1401E600002783DFCC240AC01B016F5F7F4FF101EA0DFB1D09
:1401FA00208101E078DFC3948C2D803198F34395403238F357
:14020E000C94C30221E000276CCF0E949E02622FA02E4A2DFC
:1402220055274030450789F04130E0E05E0781F04230E0E0DE
:140236005E0779F04330E0E05E0771F04430E0E05E0769F0FB
:14024A000FC0462F40580EC0462F40580BC0462F405708C04A
:14025E00462F485705C0462F485602C0462F4058242F002757
:140272003EDF0C94A5020E94AC02C22EA02E4E815F812C2DFE
:140286000A2DC7DF09C0FA01208101E02EDF4F5F5F4F04E6EE
:14029A0010E05FDFFA012080222099F70C94B302AA92A02E56
:1402AE0080E690E0EA2DFF27E80FF91F208101E018DFA99068
:1402C20008952297A5DF0AE010E047DF8FE690E09983888342
:1402D600222701E0CEDF229608950E948D02249700E610E026
:1402EA000E94D502088319832A833B839BD090980CECAAD0F0
:1402FE0004E4A8D095D00CECA5D00EEBA3D0BDD0C02EBBD048
:14031200E02EAE2CBB24BA2CAA242C2C3324A228B3280CE517
:1403260010E00E94D5021801290185010E948E033A932A93D4
:14033A001A930A93810192010E949004088319832A833B8388
:14034E0008E510E00E94D502CE019A938A930E9486041801E7
:14036200290104E510E00E94D5023A932A931A930A938101B5
:1403760092010E9457030E946203580124960C9482022697E9
:14038A008AB387608ABB8FEF8BBBA09A222425BA889A22BAD5
:14039E00909A00EA1FE0DBDE8EDE8DDF00EA1FE0D6DE34C016
:1403B20096DF580100EA1FE0D0DE00EA1FE0CDDE00EA1FE055
:1403C600CADE25E002E025DF24E630E085010E9468020D8354
:1403DA0067DF2D808AE0829D10012AE030E085010E946802D6
:1403EE002801421853084C82042D58DF2D8084E6829D15019B
:14040200201831084C808AE0849D201831082B820CE04ADFEB
:140416000B8148DFCBCF2696089502C0015010400030010791
:14042A00D9F70895A19AA99AA99808EB1BE0F3DFA99AA19856
:14043E0002E310E0EEDF9999FECFA19AA99A06E910E0E7CFF6
:14045200AA924A93A02E442710C0A99801E0142F0E94E90282
:140466002A2C202211F0A99A01C0A99808E210E0D4DFA99AD4
:14047A004395483070F3A99A4991A99008950E949E02AA24B8
:14048E00442718C0A998A99AA19863B3627031F001E0142F2D
:1404A2000E94E902A02A07C001E0142F0E94E902202E209475
:1404B600A22002E310E0B1DFA19A4395483030F30A2D0C9486
:1404CA00A502689401C0E894EA92FA928A93EE24FF2480E183
:1404DE00000F111FEE1CFF1CE216F30618F0E21AF30A03951C
:1404F2008A95A1F716F40E2D1F2D8991F990E9900895A990BC
:14050600B990C990D990E990F99008957A936A935A934A9363
:14051A00FA92EA92DA92CA92BA92AA9208957A936A935A93E1
:14052E004A930895499159916991799108957A936A935A93E3
:140542004A93BA92AA920895A990B990499159916991799159
:1405560008955A934A93DA92CA92BA92AA920895A990B990BB
:14056A00C990D9904991599108957A936A935A934A93DA921A
:14057E00CA92BA92AA920895A990B990C990D99049915991E0
:1405920069917991089500951095209530950F5F1F4F2F4FA6
:1405A6003F4F0895EA93FA930A92E02FF12FC895002D3196F0
:1405BA00C895102D3196C895202D3196C895302D0990F9917E
:1405CE00E9910895112319F0000F1A95FBCF0895689401C0E3
:1405E200E8940E9418040E94AE0309F447C0E62ED52EC42E6B
:1405F600B32EA22E912E802E00811181228133810E94AE0316
:14060A0009F443C0842F952F8C199D09B9F072F490958095D1
:14061E0001964C2D5D2D8831B0F5359527951795079501976A
:14063200D1F708C0883110F5B594A794979487940197D1F73C
:1406460066272EF0080D191D2A1D3B1D09C0801A910AA20A61
:14065A00B30A082D192D2A2D3B2D33231AF40E94CC0260E879
:14066E000E94D30302C00E9401040E9427040895008111811A
:1406820022813381C6F70E94B603A9F340E83427F2CF082DE0
:14069600192D2A2D3B2D4C2D5D2D6E2D33233AF70E94CC02B6
:1406AA0060E8E3CFFA93EA93EC2FFD2F32960E94F102E9911A
:1406BE00F991249608954A935A936A930E94BE03F1F05523C4
:1406D200C2F04F31A8F44731C1F050F44195495E05C03595CD
:1406E6002795179507954A95D1F70DC04751000F111F221F70
:1406FA00331F4A95D1F705C03FE7232F132F032F04C06623F5
:14070E0011F00E94CC026991599149910895689401C0E894D2
:140722002227332746F017FD209517FD309503C0689401C0C8
:14073600E8944A935A936A9347E1662755272EF033231AF4B9
:14074A000E94CC0260E80E94D30369915991499108950FD031
:14075E0029F0662311F00E94CC0298940895002329F4112337
:1407720019F4222309F433230895F7DF79F0632F6078220F57
:14078600331F432F5FE7451B55275040269530E8232B33276E
:14079A00989408954427552766270895E2DF21F19A938A9354
:1407AE008EE790E0332351F03695279517950795481759072D
:1407C200C4F44F5F5F4FF4CF8095909501962223AAF0000F8D
:1407D600111F221F481759071CF041505040F5CF002711278F
:1407EA002227332789919991089533270FEF102F2FE7322F69
:1407FE0089919991B4DF39F041585F4F342F220F3695279585
:14081200362B0895AADF21F00F9300E830270F910895F8DF45
:140826003A932A931A930A9308958A929A92AA92BA92CA9221
:14083A00DA92EA92FA924A935A936A937A938A939A9308957B
:14084E00999189917991699159914991F990E990D990C990C6
:14086200B990A9909990899008950E941804AA93BA930E9437
:14087600BE03D1F1E62ED52EC42EB32EA22E912E802E008143
:14088A001181228133810E94BE0361F16E254C0D5D1D4038DE
:14089E0053075CF541387FEF570764F1A29EB12DA02D919EE7
:1408B200912D802DA09E800D911DA31FB31F829E800D911D5F
:1408C600A31FB31F929E900DA11DB31FA19E900DA11DB31FC1
:1408DA002B2F1A2F092F880F001F111F221F331F0E94D3033E
:1408EE00B991A9910E94270408950FEF102F2FE74FE7F6CFBA
:140902000027102F202F302FF1CFFA93EA93EA81FB810E947A
:140916003604E991F99122960895FA93EA93EC2FFD2F329621
:0C092A000E943604E991F991249608958A
:00000001FF
