:040000000C942C0030
:1400540004010802CFE5D4E0CDBFDEBFC051D0400AEA088358
:140068000024E4E6F0E010E0E436F10711F00192FBCF0083E3
:14007C00E4E5F0E0A0E6B0E010E000E00BBFE835F10721F001
:14009000C89531960D92F9CF0E945A00FFCF002706C02227D1
:1400A40001C023952F3FE8F303950431C0F308958FEF87BBA9
:1400B80088BB44270FC066270AC080E690E0E62FFF27E80F58
:1400CC00F91F208028BAE5DF63956430A0F34395423378F3EB
:0800E0008FEF88BBFFCF0895EC
:00000001FF
