:040000000C942A0032
:040010000C94C0008C
:080020000C9496000C946200A0
:14005400CFE5D4E0CDBFDEBFCE51D0400AEA08830024E0E66F
:14006800F0E010E0E336F10711F00192FBCF0083E4E5F0E039
:14007C00A0E6B0E010E000E00BBFE435F10721F0C89531967A
:140090000D92F9CF0E944D00FFCF8FEF81BB82BB05D02BD071
:1400A40060D07894FFCF0895222423BE82EB82BF8EE48CBF0F
:1400B80085E083BF89B7816089BF08952A928A939A932FB69C
:1400CC002A9282EB82BF809162008F5F80936200823339F4FE
:1400E00022242092620081E022B2282622BA29902FBE999183
:1400F40089912990189522242EBC8BEF8DBD8EE18CBD84E068
:140108008BBD82EE8ABD84E089BD82EE88BD84E087BD82EE6D
:14011C0086BD2FBC83E08EBD89B7846089BF08952A928A9311
:140130009A932FB62A928BEF8DBD8EE18CBD809161008F5F11
:1401440080936100843639F422242092610082E022B228266F
:1401580022BA29902FBE9991899129901895222425BC22BC62
:14016C0082EB84BD8EE483BD87E085BD89B7806489BF08956D
:140180002A928A939A932FB62A9282EB84BD809160008F5FB7
:1401940080936000883C39F422242092600084E022B2282615
:0E01A80022BA29902FBE99918991299018951D
:00000001FF
