:030000000200C536
:0C00C500787FE4F6D8FD75810A02006D1A
:10006D001200037509FE750A7FE4F508850990E510
:10007D000925E0F5097FF47E011200B00508E508B9
:10008D00C3940740E7E4F508E508C3940750D48509
:10009D000A90E50AC313F50A7FF47E011200B0053C
:0300AD000880E5E3
:1000B000D3EF9400EE9400400B7DC8DDFEEF1F707F
:0400C000EF1E80ECC3
:0100C4002219
:10000300758920C29FD29ED29C758DFD758BFDD2C2
:060013008ED2AFD2AC2238
:03002300020026B2
:0F002600C0E0C0D075D000C004C005C006C00740
:10003500309826C298AF99BF3D217FE87E037D6445
:100045007C00ED1D70011CED4C70F7EF1F70011E5B
:0B005500EF4E70EA75E7608002C29970
:0D006000D007D006D005D004D0D0D0E032BB
:00000001FF
