:0200000012C02C
:14002600CFE5D4E0CDBFDEBFCE51D0400AEA08830024E0E69D
:14003A00F0E010E0E036F10711F00192FBCF0083E6E2F0E06B
:14004E00A0E6B0E010E0E632F10721F0C89531960D92F9CFEC
:1400620028D0FFCF82E081BB8FEF82BB089588E98AB984E3B3
:1400760089B9222420BC86E880BD08955D9BFECF0CB90895A3
:14008A0026D0A80104C0FA010191AF01F5DFFA012080222011
:14009E00C1F70DE0EFDF0AE0EDDF1AD008955F9BFECF0CB11A
:1400B2000895DDDF06C0F9DF402F242E209428BADFDFF9CF66
:1400C6000895FA92EA92DA92CA92BA92AA927A936A935A933A
:1400DA004A930895E1E049915991E0FD089569917991E1FDB7
:1400EE000895A990B990E2FD0895C990D990E3FD0895E990AB
:04010200F9900895D3
:00000001FF
