:040000000C94360026
:1400540000000000000000C0F9A4B0999282F88090FF00FED9
:03006800FDFBF7A6
:14006C00CFE5D4E0CDBFDEBFCE51D0400AEA08830024E7E74F
:14008000F0E010E0E737F10711F00192FBCF0083E4E5F0E01C
:14009400A0E6B0E010E000E00BBFEB36F10721F0C89531965A
:1400A8000D92F9CF0E942A01FFCF02C00150104000300107A7
:1400BC00D9F70895A19AA99AA99808EB1BE0F3DFA99AA198C8
:1400D00002E310E0EEDF9999FECFA19AA99A06E910E0E7CF68
:1400E400AA924A93A02E442710C0A99801E0142F0E9471016D
:1400F8002A2C202211F0A99A01C0A99808E210E0D4DFA99A46
:14010C004395483070F3A99A4991A99008950E945101AA2477
:14012000442718C0A998A99AA19863B3627031F001E0142F9E
:140134000E947101A02A07C001E0142F0E947101202E2094D8
:14014800A22002E310E0B1DFA19A4395483030F30A2D0C94F7
:14015C005801002701C003950F3FE8F308954A9344272CC0BC
:14017000413081F480E690E0E42FFF27E80FF91FE081FF27F0
:1401840087E690E0E80FF91F80818F7788BB0EC080E690E08D
:14019800E42FFF27E80FF91FE081FF2787E690E0E80FF91F98
:1401AC00208028BA83E790E0E42FFF27E80FF91F20802BBA16
:1401C000CEDF8FEF8BBB4395443008F4D1CF499108950E94B9
:1401D4005F0174DF0CEC84DF04E482DF6FDF0CEC7FDF0EEB23
:1401E8007DDF97DFA02E95DFC02E80E18C9D0A2D02950F702A
:1401FC00000D1AE00E943B010093600080E18C9D0A2D0295BF
:140210000F70000D1AE00E943901009361004A2D4F7062E00C
:1402240013C08AE0849FA00180E690E0E62FFF27E80FF91FA5
:14023800842F82958F70808310E1042F0E943901402F63957F
:14024C00663058F30C9468018FEF8ABB87BB8BBB88BB07C05F
:14026000B8DF442702C081DF43954E31E0F3F8CF08956894DC
:1402740001C0E8942A93FA92EA92FF24EE2420E1000FFF1C14
:14028800EE1CE11610F0E11A03952A95B9F70EF40E2DE990A9
:14029C00F990299108957A936A935A934A93BA92AA92089575
:1402B000A990B990499159916991799108957A936A935A935C
:1402C4004A93DA92CA92BA92AA920895A990B990C990D99018
:1402D80049915991699179910895112319F0000F1A95FBCFE8
:0202EC00089573
:00000001FF
