:10005100FEFDFBF7EFDFBF7F7FBFDFEFF7FBFDFEAD
:0C006100E4FFE4FE0EBEC8FC0FBFC8F6B2
:01006D002270
:060030008B088A09890A11
:10003600E4FDAB08AA09A90A8D82758300120003A4
:0B004600F5901200610DBD10E980E58F
:09007A007BFF7A0079510200308D
:0300000002006E8D
:0C006E00787FE4F6D8FD75810A02007A64
:10000300BB010CE58229F582E5833AF583E02250B2
:1000130006E92582F8E622BBFE06E92582F8E222FC
:0D002300E58229F582E5833AF583E4932216
:00000001FF
