:040000000C94340028
:1300540000000000C0F9A4B0999282F88090FFFEFDFBF7EB
:14006800CFE5D4E0CDBFDEBFCE51D0400AEA08830024E3E757
:14007C00F0E010E0E337F10711F00192FBCF0083E4E5F0E024
:14009000A0E6B0E010E000E00BBFE736F10721F0C895319662
:1400A4000D92F9CF0E94B500FFCF4A935A9309C048EE53E0C0
:1400B80002C04150504040304507D9F70A950023A9F7599179
:1400CC00499108954A9344271BC080E690E0E42FFF27E80F80
:1400E000F91FE081FF2784E690E0E80FF91F208028BA8FE68D
:1400F40090E0E42FFF27E80FF91F20802BBA01E0D4DF8FEFA9
:140108008BBB4395443018F3499108950E942901A801E09BDF
:14011C0002C000E2C6DF1A01232C33242FBACA0190708EBBC8
:14013000E09A00E2BCDFADB20A2D0C942E010E942901A901E9
:14014400A02EE59B02C000E2B0DF1A01232C33242FBACA01B1
:1401580090708EBBADBAE29AE19A00E2A4DF0C942E018AB37B
:14016C008F608ABB22242BBA8FEF87BB88BB01E010E0CADFA3
:14018000402F43954F3F08F0442721E030E0042FD6DF14E640
:14019400042F0E9413010093610014E6042F0E9411011AE09F
:1401A8000E9413010093620014E6042F0E9411011AE00E941B
:1401BC001101009363008AE0809360002AC0CC9927C001C053
:1401D0007FDFCC9BFDCF43954F3F08F0442721E030E0042F7D
:1401E400ACDF14E6042F0E9413010093610014E6042F0E94D6
:1401F80011011AE00E9413010093620014E6042F0E9411015B
:14020C001AE00E941101009363008AE08093600059DFD5CF81
:140220000895689401C0E8942A93FA92EA92FF24EE2420E1F9
:14023400000FFF1CEE1CE11610F0E11A03952A95B9F70EF487
:140248000E2DE990F990299108955A934A93BA92AA9208951F
:0A025C00A990B990499159910895B5
:00000001FF
