:040000000C94330029
:1400540001020304C0F9A4B0999282F88090FEFDFBF7CFE52B
:14006800D4E0CDBFDEBFCE51D0400AEA08830024E2E7F0E03C
:14007C0010E0E237F10711F00192FBCF0083E4E5F0E0A0E66F
:14009000B0E010E0E636F10721F0C89531960D92F9CF0E948A
:1400A4007D00FFCF002701C003950F3FE8F308950E948E0087
:1400B80044271AC080E690E0E42FFF27E80FF91FE081FF274A
:1400CC0084E690E0E80FF91F208028BA8EE690E0E42FFF2798
:1400E000E80FF91F20802BBADFDF8FEF8BBB4395443020F397
:1400F4000E94910008958FEF8ABB87BB8BBB88BB01C0D6DF24
:14010800FECF0895FA92EA92DA92CA92BA92AA927A936A9317
:14011C005A934A930895E1E049915991E0FD08956991799165
:14013000E1FD0895A990B990E2FD0895C990D990E3FD089503
:06014400E990F990089516
:00000001FF
