:040000000C947E00DE
:040038000C944002E2
:14005400000000000000000000303132333435363738392E5D
:140068002D4D00004144435F303A202E202020205600000055
:14007C00000000000000000000000000000000000000000070
:1400900000000000000000000000000000000000000000005C
:1400A400000000000000000000000000000000000000000048
:1400B800000000000000000000000000000000000000000034
:1400CC00000000000000000000000000000000000000000020
:1400E00000000000000000000000000000000000000000000C
:0700F4000000000000000005
:1400FC00CFE5D4E0CDBFDEBFCE51D0400AEA08830024EEEFB0
:14011000F0E010E0EE3FF10711F00192FBCF0083EDE5F0E073
:14012400A0E6B0E010E0EB3FF10721F0C89531960D92F9CF03
:140138000E940802FFCF02C00150104081E090E080179107D6
:14014C00C8F308950E946A0404EF11E0F2DFD89804EF11E02E
:14016000EEDFD99A04EF11E0EADF1AC0DA9A04EF11E0E5DFA8
:14017400222427BA8FEF88BB04EF11E0DEDF46B3407804EF4A
:1401880011E0D9DF8FEF87BB88BB04EF11E0D3DFDA9804EFBC
:14019C0011E0CFDF442321F70E946D0408950E946A04402F02
:1401B000CFDF04EF11E0C3DFD89804EF11E0BFDFD99804EFB1
:1401C40011E0BBDFDA9A04EF11E0B7DF48BB04EF11E0B3DF35
:1401D800DA9804EF11E0AFDF0E946D0408958FEF87BB222479
:1401EC0028BA08E3DCDF08EE13E0A3DF01E0D7DF08EE13E08C
:140200009EDF08EE13E09BDF08EE13E098DF08EE13E095DF4D
:1402140008EE13E092DF08EE13E08FDF08EE13E08CDF02E0EF
:14022800C0DF08EE13E087DF06E0BBDF08EE13E082DF0CE01E
:14023C00B6DF08EE13E07DDF08E3B1DF08EE13E078DF08957C
:140250000E946A04402F7CDF04EF11E070DFD89A04EF11E037
:140264006CDFD99804EF11E068DFDA9A04EF11E064DF48BB01
:1402780004EF11E060DFDA9804EF11E05CDF0E946D0408950E
:14028C000E946A045FDF04EF11E053DFD89A04EF11E04FDF76
:1402A000D99A04EF11E04BDFDA9A04EF11E047DF222427BA24
:1402B40004EF11E042DF46B304EF11E03EDF8FEF87BB04EF84
:1402C80011E039DFDA9804EF11E035DF042F0E946D040895CC
:1402DC000E9466045901A80100E461DFD89AD998BA010BC072
:1402F000F50145915491DA9A48BBDA98C50102965C016150F4
:1403040070406030670791F70E945F0408950E9466045801A8
:1403180000E847DFD89AD99802E310E00CDF66270CC0F501D1
:14032C00449148BBDA9A02E310E003DFDA98C50101965C018E
:140340006395603190F300EC30DFD89AD99802E310E0F5DE17
:1403540066270CC0F501449148BBDA9A02E310E0ECDEDA98E9
:14036800C50101965C016395603190F30E945F0408950E9477
:14037C006804B901A8014130E0E05E0721F4AB0140585F4F01
:1403900003C0AB0140545F4F042F07DF0C811D8157DF0E948C
:1403A4005C0408950E946604622F402FA884B984413019F455
:1403B800462F405802C0462F4054042FF2DED89A04EF11E000
:1403CC00B8DED99804EF11E0B4DE6E817F8115C0F501408125
:1403E00004EF11E0ACDE48BB04EF11E0A8DEDA9A04EF11E0D6
:1403F400A4DEDA9804EF11E0A0DEC50101965C016A9566235D
:1404080049F70E945F040895289784E590E0FE01349604E0B9
:14041C0010E0FA93EA939A938A930E94E0048AB387608ABB99
:1404300022242BBA87B38F6F87BB8FEF88BBD3DE8FE690E0BC
:140444009B838A838DE090E099838883222701E0A9DF22247D
:1404580026B880EC87B98EEC86B97894FFCF2896089524B143
:14046C00332705B111271801322C2224220E331E81010895D7
:140480000E94A6040E9466042F9788E590E0FE013A9605E0B9
:1404940010E0FA93EA939A938A930E94E00440E050E060E0FA
:1404A80070E0FE01428353836483758387EC87B9369AD7DF3E
:1404BC0020907D0082E0829DF0018EE790E0E80FF91F118305
:1404D000008380917D008F5F80937D00803408F444C122248E
:1404E40020927D00AA241AC082E08A9DF0018EE790E0E80FD7
:1404F800F91F2080318044245524FE016280738084809580B9
:14050C00620C731C841C951CFE016282738284829582A39461
:140520008A2D803418F386E090E0FE0122803380448055808E
:140534008A93810192010E94D404FE0102831383248335838E
:14054800FE01228033804480558040E955E660E070E05A92D2
:14055C004A923A922A928A019B010E942C044FEF53E060E07D
:1405700070E07A936A935A934A930E94BB03FE0106831783D1
:140584002087318740E157E260E070E0FE01268037804084FA
:1405980051847A936A935A934A93810192010E94BB030E879C
:1405AC0040E157E260E070E0FE0126803780408451847A934F
:1405C0006A935A934A93810192010E94BD03FE0106831783C7
:1405D4002087318748EE53E060E070E0FE012680378040849B
:1405E80051847A936A935A934A93810192010E94BB030D874D
:1405FC0048EE53E060E070E0FE0126803780408451847A93F0
:140610006A935A934A93810192010E94BD03FE010683178376
:140624002087318744E650E060E070E0FE0126803780408459
:1406380051847A936A935A934A93810192010E94BB030C87FD
:14064C0044E650E060E070E0FE0126803780408451847A93AE
:140660006A935A934A93810192010E94BD03FE010683178326
:14067400208731874AE050E060E070E0FE0126803780408409
:1406880051847A936A935A934A93810192010E94BB030B87AE
:14069C004AE050E060E070E0FE0126803780408451847A935E
:1406B0006A935A934A93810192010E94BD03FE0106831783D6
:1406C40020873187FE0126803780408451842A8680E690E048
:1406D800EE85FF27E80FF91F208033243982288226E030E0F4
:1406EC0001E010E044DE80E690E0ED85FF27E80FF91F2080EA
:1407000033243982288228E030E001E010E035DE80E690E057
:14071400EC85FF27E80FF91F208033243982288229E030E0B6
:1407280001E010E026DE80E690E0EB85FF27E80FF91F2080CD
:14073C003324398228822AE030E001E010E017DE80E690E037
:14075000EA85FF27E80FF91F20803324398228822BE030E07A
:1407640001E010E008DE2F960E945F040E94BD041895E89474
:1407780001C068942FD0CC2408C0E89401C0689429D037FD93
:14078C0053D0B7FD5AD0772488249924AA24BB2441D0C1F0E5
:1407A00044D0B1F0E8E2000F111F221F331F771C881C991C08
:1407B400AA1CBB1C88169906AA06BB0628F0881A990AAA0AD5
:1407C800BB0A0395EA9559F726F4082D192D2A2D3B2D13C0CA
:1407DC007A928A929A92AA92BA92CA92EA938A939A93AA93CD
:1407F000BA938B859C85AD85BE85C32E0EF0CB260895C7FCC2
:1408040017D0B991A99199918991E991C990B990A9909990B3
:140818008990799024960895E02FE12BE22BE32B0895E82F69
:14082C00E92BEA2BEB2B089500951095209530950F5F1F4F4C
:140840002F4F3F4F089580959095A095B0958F5F9F4FAF4F6D
:14085400BF4F08950E9481047F920E949A0439F177240E9406
:14086800A00419F48C019D0120C0089FB02CA12C289F902CED
:14087C00812C189FA00C911C871C099FA00C911C871C199FAC
:14089000900C811C0A9F900C811C389F800C299F800C1A9FC9
:1408A400800C0B9F800C0B2D1A2D292D382D7F900C948F0402
:1408B800E2E00C946E04E4E00C946E04FA92EA92DA92CA92B2
:1408CC00BA92AA927A936A935A934A930895E1E0499159919A
:1408E000E0FD089569917991E1FD0895A990B990E2FD08950D
:1408F400C990D990E3FD0895E990F99008958A929A92AA928E
:14090800BA92EA938A939A93AA93BA9389859A85AB85BC85A0
:14091C000895B991A99199918991E991B990A9909990899024
:1409300024960895EE27E02BE12BE22BE32B0895EE27E82B50
:14094400E92BEA2BEB2B0895FA93EA93BA93AA939A938A93E5
:140958003A932A931A930A939A928A927A926A925A924A929F
:14096C003A922A921A920A920FB60A92089509900FBE0990AA
:14098000199029903990499059906990799089909990099198
:1409940019912991399189919991A991B991E991F9910895B8
:1409A8000F920990002031F036952795179507950A94F8CF8C
:1409BC000F900895AA93BA93EA93FA930A92AF81B885ED81E0
:1409D000FE810030010731F0C8950D92319601501040F7CF11
:0E09E4000990F991E991B991A991249608958D
:00000001FF
