:040000000C942A0032
:14005400CFE5D4E0CDBFDEBFCE51D0400AEA08830024E0E66F
:14006800F0E010E0E036F10711F00192FBCF0083E4E5F0E03C
:14007C00A0E6B0E010E000E00BBFE435F10721F0C89531967A
:140090000D92F9CF0E946000FFCF002711270BC02227332758
:1400A40002C02F5F3F4F283EE3E03E07D0F30F5F1F4F0F3F0F
:1400B800E0E01E0788F3089580EF81BB8FEF82BB22242ABAA7
:1400CC008BBB4CC0CD9908C005C08FE082BBDFDF8FEF82BBB6
:1400E000CD9BF9CFCC990EC00BC08FE082BBD5DF8FEF82BBC3
:1400F400D2DF8FE082BBCFDF8FEF82BBCC9BF3CF839914C019
:1401080011C08FE082BBC5DF8FEF82BBC2DF8FE082BBBFDF1C
:14011C008FEF82BBBCDF8FE082BBB9DF8FEF82BB839BEDCFA0
:1401300082991AC017C08FE082BBAFDF8FEF82BBACDF8FE000
:1401440082BBA9DF8FEF82BBA6DF8FE082BBA3DF8FEF82BBB9
:14015800A0DF8FE082BB9DDF8FEF82BB829BE7CFB3CF08953F
:00000001FF
